{
  "contractName": "Todo",
  "abi": [
    {
      "anonymous": false,
      "inputs": [
        {
          "indexed": true,
          "internalType": "address",
          "name": "user",
          "type": "address"
        },
        {
          "indexed": true,
          "internalType": "uint256",
          "name": "taskId",
          "type": "uint256"
        }
      ],
      "name": "TaskCompleted",
      "type": "event"
    },
    {
      "anonymous": false,
      "inputs": [
        {
          "indexed": true,
          "internalType": "address",
          "name": "user",
          "type": "address"
        },
        {
          "indexed": true,
          "internalType": "uint256",
          "name": "taskId",
          "type": "uint256"
        },
        {
          "indexed": false,
          "internalType": "string",
          "name": "name",
          "type": "string"
        }
      ],
      "name": "TaskCreated",
      "type": "event"
    },
    {
      "anonymous": false,
      "inputs": [
        {
          "indexed": true,
          "internalType": "address",
          "name": "user",
          "type": "address"
        },
        {
          "indexed": true,
          "internalType": "uint256",
          "name": "taskId",
          "type": "uint256"
        }
      ],
      "name": "TaskDeleted",
      "type": "event"
    },
    {
      "anonymous": false,
      "inputs": [
        {
          "indexed": true,
          "internalType": "address",
          "name": "user",
          "type": "address"
        },
        {
          "indexed": true,
          "internalType": "uint256",
          "name": "taskId",
          "type": "uint256"
        },
        {
          "indexed": false,
          "internalType": "string",
          "name": "name",
          "type": "string"
        }
      ],
      "name": "TaskUpdated",
      "type": "event"
    },
    {
      "inputs": [
        {
          "internalType": "address",
          "name": "",
          "type": "address"
        },
        {
          "internalType": "uint256",
          "name": "",
          "type": "uint256"
        }
      ],
      "name": "tasks",
      "outputs": [
        {
          "internalType": "uint256",
          "name": "id",
          "type": "uint256"
        },
        {
          "internalType": "string",
          "name": "name",
          "type": "string"
        },
        {
          "internalType": "uint256",
          "name": "createdAt",
          "type": "uint256"
        },
        {
          "internalType": "uint256",
          "name": "updatedAt",
          "type": "uint256"
        },
        {
          "internalType": "uint256",
          "name": "completedAt",
          "type": "uint256"
        },
        {
          "internalType": "uint256",
          "name": "deletedAt",
          "type": "uint256"
        }
      ],
      "stateMutability": "view",
      "type": "function",
      "constant": true
    },
    {
      "inputs": [
        {
          "internalType": "string",
          "name": "_name",
          "type": "string"
        }
      ],
      "name": "createTask",
      "outputs": [
        {
          "internalType": "uint256",
          "name": "",
          "type": "uint256"
        }
      ],
      "stateMutability": "nonpayable",
      "type": "function"
    },
    {
      "inputs": [
        {
          "internalType": "uint256",
          "name": "_id",
          "type": "uint256"
        }
      ],
      "name": "getTaskById",
      "outputs": [
        {
          "components": [
            {
              "internalType": "uint256",
              "name": "id",
              "type": "uint256"
            },
            {
              "internalType": "string",
              "name": "name",
              "type": "string"
            },
            {
              "internalType": "uint256",
              "name": "createdAt",
              "type": "uint256"
            },
            {
              "internalType": "uint256",
              "name": "updatedAt",
              "type": "uint256"
            },
            {
              "internalType": "uint256",
              "name": "completedAt",
              "type": "uint256"
            },
            {
              "internalType": "uint256",
              "name": "deletedAt",
              "type": "uint256"
            }
          ],
          "internalType": "struct Todo.Task",
          "name": "",
          "type": "tuple"
        }
      ],
      "stateMutability": "view",
      "type": "function",
      "constant": true
    },
    {
      "inputs": [
        {
          "internalType": "string",
          "name": "_name",
          "type": "string"
        },
        {
          "internalType": "uint256",
          "name": "taskId",
          "type": "uint256"
        }
      ],
      "name": "updateTask",
      "outputs": [],
      "stateMutability": "nonpayable",
      "type": "function"
    },
    {
      "inputs": [
        {
          "internalType": "uint256",
          "name": "taskId",
          "type": "uint256"
        }
      ],
      "name": "deleteTask",
      "outputs": [],
      "stateMutability": "nonpayable",
      "type": "function"
    },
    {
      "inputs": [],
      "name": "getAllTasksForAUser",
      "outputs": [
        {
          "components": [
            {
              "internalType": "uint256",
              "name": "id",
              "type": "uint256"
            },
            {
              "internalType": "string",
              "name": "name",
              "type": "string"
            },
            {
              "internalType": "uint256",
              "name": "createdAt",
              "type": "uint256"
            },
            {
              "internalType": "uint256",
              "name": "updatedAt",
              "type": "uint256"
            },
            {
              "internalType": "uint256",
              "name": "completedAt",
              "type": "uint256"
            },
            {
              "internalType": "uint256",
              "name": "deletedAt",
              "type": "uint256"
            }
          ],
          "internalType": "struct Todo.Task[]",
          "name": "",
          "type": "tuple[]"
        }
      ],
      "stateMutability": "view",
      "type": "function",
      "constant": true
    },
    {
      "inputs": [
        {
          "internalType": "uint256",
          "name": "taskId",
          "type": "uint256"
        }
      ],
      "name": "markTaskAsCompleted",
      "outputs": [],
      "stateMutability": "nonpayable",
      "type": "function"
    }
  ],
  "bytecode": "0x608060405234801561001057600080fd5b506115ff806100206000396000f3fe608060405234801561001057600080fd5b506004361061007d5760003560e01c80637149d2e41161005b5780637149d2e4146100ea578063976217cd1461011f578063b10bcefa1461014f578063ed3d2eb31461016b5761007d565b8063111002aa146100825780634779ba58146100b2578063560f3192146100ce575b600080fd5b61009c60048036038101906100979190610f04565b610189565b6040516100a99190610f66565b60405180910390f35b6100cc60048036038101906100c79190610fad565b61030f565b005b6100e860048036038101906100e39190611009565b6104c7565b005b61010460048036038101906100ff9190611094565b61063a565b6040516101169695949392919061115c565b60405180910390f35b61013960048036038101906101349190611009565b61071b565b60405161014691906112a6565b60405180910390f35b61016960048036038101906101649190611009565b61091d565b005b610173610a5f565b6040516101809190611413565b60405180910390f35b6000806000803373ffffffffffffffffffffffffffffffffffffffff1673ffffffffffffffffffffffffffffffffffffffff1681526020019081526020016000208054905090506000803373ffffffffffffffffffffffffffffffffffffffff1673ffffffffffffffffffffffffffffffffffffffff1681526020019081526020016000206040518060c00160405280838152602001858152602001428152602001428152602001600081526020016000815250908060018154018082558091505060019003906000526020600020906006020160009091909190915060008201518160000155602082015181600101908051906020019061028c929190610cd1565b5060408201518160020155606082015181600301556080820151816004015560a082015181600501555050803373ffffffffffffffffffffffffffffffffffffffff167fa211005f5319202ee7ab6815fc340564635fb1eee9bc5a55aa10048c5b471dc4856040516102fe9190611435565b60405180910390a380915050919050565b60008060003373ffffffffffffffffffffffffffffffffffffffff1673ffffffffffffffffffffffffffffffffffffffff168152602001908152602001600020905060005b8180549050811015610487578282828154811061037457610373611457565b5b9060005260206000209060060201600001541480156103b7575060008282815481106103a3576103a2611457565b5b906000526020600020906006020160050154145b1561047457838282815481106103d0576103cf611457565b5b906000526020600020906006020160010190805190602001906103f4929190610cd1565b504282828154811061040957610408611457565b5b906000526020600020906006020160030181905550823373ffffffffffffffffffffffffffffffffffffffff167f6b453b6adc8ef22128c2019adf1d4aa703ca6edd91f0d692ac03e638bde93271866040516104659190611435565b60405180910390a350506104c3565b808061047f906114b5565b915050610354565b506040517f08c379a00000000000000000000000000000000000000000000000000000000081526004016104ba90611549565b60405180910390fd5b5050565b60008060003373ffffffffffffffffffffffffffffffffffffffff1673ffffffffffffffffffffffffffffffffffffffff168152602001908152602001600020905060005b81805490508110156105fb578282828154811061052c5761052b611457565b5b90600052602060002090600602016000015414801561056f5750600082828154811061055b5761055a611457565b5b906000526020600020906006020160050154145b156105e8574282828154811061058857610587611457565b5b906000526020600020906006020160050181905550823373ffffffffffffffffffffffffffffffffffffffff167fd1bc87501afcaa22b7f6481dac99ed45fbe02321873ca9b55c1f41b9d78b8fb360405160405180910390a35050610637565b80806105f3906114b5565b91505061050c565b506040517f08c379a000000000000000000000000000000000000000000000000000000000815260040161062e90611549565b60405180910390fd5b50565b6000602052816000526040600020818154811061065657600080fd5b90600052602060002090600602016000915091505080600001549080600101805461068090611598565b80601f01602080910402602001604051908101604052809291908181526020018280546106ac90611598565b80156106f95780601f106106ce576101008083540402835291602001916106f9565b820191906000526020600020905b8154815290600101906020018083116106dc57829003601f168201915b5050505050908060020154908060030154908060040154908060050154905086565b610723610d57565b60008060003373ffffffffffffffffffffffffffffffffffffffff1673ffffffffffffffffffffffffffffffffffffffff168152602001908152602001600020905060005b81805490508110156108dc578382828154811061078857610787611457565b5b9060005260206000209060060201600001541480156107cb575060008282815481106107b7576107b6611457565b5b906000526020600020906006020160050154145b156108c9578181815481106107e3576107e2611457565b5b90600052602060002090600602016040518060c00160405290816000820154815260200160018201805461081690611598565b80601f016020809104026020016040519081016040528092919081815260200182805461084290611598565b801561088f5780601f106108645761010080835404028352916020019161088f565b820191906000526020600020905b81548152906001019060200180831161087257829003601f168201915b5050505050815260200160028201548152602001600382015481526020016004820154815260200160058201548152505092505050610918565b80806108d4906114b5565b915050610768565b506040517f08c379a000000000000000000000000000000000000000000000000000000000815260040161090f90611549565b60405180910390fd5b919050565b60008060003373ffffffffffffffffffffffffffffffffffffffff1673ffffffffffffffffffffffffffffffffffffffff168152602001908152602001600020905060005b8180549050811015610a20578282828154811061098257610981611457565b5b90600052602060002090600602016000015403610a0d57428282815481106109ad576109ac611457565b5b906000526020600020906006020160040181905550823373ffffffffffffffffffffffffffffffffffffffff167ff684d89bb0f42287bf32838774e4b7f8a60c11804b3c6d1791fa55f30679264360405160405180910390a35050610a5c565b8080610a18906114b5565b915050610962565b506040517f08c379a0000000000000000000000000000000000000000000000000000000008152600401610a5390611549565b60405180910390fd5b50565b606060008060003373ffffffffffffffffffffffffffffffffffffffff1673ffffffffffffffffffffffffffffffffffffffff16815260200190815260200160002090506000805b8280549050811015610b01576000838281548110610ac857610ac7611457565b5b90600052602060002090600602016005015403610aee578180610aea906114b5565b9250505b8080610af9906114b5565b915050610aa7565b5060008167ffffffffffffffff811115610b1e57610b1d610dd9565b5b604051908082528060200260200182016040528015610b5757816020015b610b44610d57565b815260200190600190039081610b3c5790505b5090506000805b8480549050811015610cc6576000858281548110610b7f57610b7e611457565b5b90600052602060002090600602016005015403610cb357848181548110610ba957610ba8611457565b5b90600052602060002090600602016040518060c001604052908160008201548152602001600182018054610bdc90611598565b80601f0160208091040260200160405190810160405280929190818152602001828054610c0890611598565b8015610c555780601f10610c2a57610100808354040283529160200191610c55565b820191906000526020600020905b815481529060010190602001808311610c3857829003601f168201915b50505050508152602001600282015481526020016003820154815260200160048201548152602001600582015481525050838381518110610c9957610c98611457565b5b60200260200101819052508180610caf906114b5565b9250505b8080610cbe906114b5565b915050610b5e565b508194505050505090565b828054610cdd90611598565b90600052602060002090601f016020900481019282610cff5760008555610d46565b82601f10610d1857805160ff1916838001178555610d46565b82800160010185558215610d46579182015b82811115610d45578251825591602001919060010190610d2a565b5b509050610d539190610d8d565b5090565b6040518060c001604052806000815260200160608152602001600081526020016000815260200160008152602001600081525090565b5b80821115610da6576000816000905550600101610d8e565b5090565b6000604051905090565b600080fd5b600080fd5b600080fd5b600080fd5b6000601f19601f8301169050919050565b7f4e487b7100000000000000000000000000000000000000000000000000000000600052604160045260246000fd5b610e1182610dc8565b810181811067ffffffffffffffff82111715610e3057610e2f610dd9565b5b80604052505050565b6000610e43610daa565b9050610e4f8282610e08565b919050565b600067ffffffffffffffff821115610e6f57610e6e610dd9565b5b610e7882610dc8565b9050602081019050919050565b82818337600083830152505050565b6000610ea7610ea284610e54565b610e39565b905082815260208101848484011115610ec357610ec2610dc3565b5b610ece848285610e85565b509392505050565b600082601f830112610eeb57610eea610dbe565b5b8135610efb848260208601610e94565b91505092915050565b600060208284031215610f1a57610f19610db4565b5b600082013567ffffffffffffffff811115610f3857610f37610db9565b5b610f4484828501610ed6565b91505092915050565b6000819050919050565b610f6081610f4d565b82525050565b6000602082019050610f7b6000830184610f57565b92915050565b610f8a81610f4d565b8114610f9557600080fd5b50565b600081359050610fa781610f81565b92915050565b60008060408385031215610fc457610fc3610db4565b5b600083013567ffffffffffffffff811115610fe257610fe1610db9565b5b610fee85828601610ed6565b9250506020610fff85828601610f98565b9150509250929050565b60006020828403121561101f5761101e610db4565b5b600061102d84828501610f98565b91505092915050565b600073ffffffffffffffffffffffffffffffffffffffff82169050919050565b600061106182611036565b9050919050565b61107181611056565b811461107c57600080fd5b50565b60008135905061108e81611068565b92915050565b600080604083850312156110ab576110aa610db4565b5b60006110b98582860161107f565b92505060206110ca85828601610f98565b9150509250929050565b600081519050919050565b600082825260208201905092915050565b60005b8381101561110e5780820151818401526020810190506110f3565b8381111561111d576000848401525b50505050565b600061112e826110d4565b61113881856110df565b93506111488185602086016110f0565b61115181610dc8565b840191505092915050565b600060c0820190506111716000830189610f57565b81810360208301526111838188611123565b90506111926040830187610f57565b61119f6060830186610f57565b6111ac6080830185610f57565b6111b960a0830184610f57565b979650505050505050565b6111cd81610f4d565b82525050565b600082825260208201905092915050565b60006111ef826110d4565b6111f981856111d3565b93506112098185602086016110f0565b61121281610dc8565b840191505092915050565b600060c08301600083015161123560008601826111c4565b506020830151848203602086015261124d82826111e4565b915050604083015161126260408601826111c4565b50606083015161127560608601826111c4565b50608083015161128860808601826111c4565b5060a083015161129b60a08601826111c4565b508091505092915050565b600060208201905081810360008301526112c0818461121d565b905092915050565b600081519050919050565b600082825260208201905092915050565b6000819050602082019050919050565b600060c08301600083015161130c60008601826111c4565b506020830151848203602086015261132482826111e4565b915050604083015161133960408601826111c4565b50606083015161134c60608601826111c4565b50608083015161135f60808601826111c4565b5060a083015161137260a08601826111c4565b508091505092915050565b600061138983836112f4565b905092915050565b6000602082019050919050565b60006113a9826112c8565b6113b381856112d3565b9350836020820285016113c5856112e4565b8060005b8581101561140157848403895281516113e2858261137d565b94506113ed83611391565b925060208a019950506001810190506113c9565b50829750879550505050505092915050565b6000602082019050818103600083015261142d818461139e565b905092915050565b6000602082019050818103600083015261144f8184611123565b905092915050565b7f4e487b7100000000000000000000000000000000000000000000000000000000600052603260045260246000fd5b7f4e487b7100000000000000000000000000000000000000000000000000000000600052601160045260246000fd5b60006114c082610f4d565b91507fffffffffffffffffffffffffffffffffffffffffffffffffffffffffffffffff82036114f2576114f1611486565b5b600182019050919050565b7f5461736b206e6f7420666f756e64000000000000000000000000000000000000600082015250565b6000611533600e836110df565b915061153e826114fd565b602082019050919050565b6000602082019050818103600083015261156281611526565b9050919050565b7f4e487b7100000000000000000000000000000000000000000000000000000000600052602260045260246000fd5b600060028204905060018216806115b057607f821691505b6020821081036115c3576115c2611569565b5b5091905056fea2646970667358221220b907a8712a7dff9f269cc09913856b017ddd862ab9e8ca83b44d191e36b5c1d264736f6c634300080d0033",
  "immutableReferences": {},
  "source": "// SPDX-License-Identifier: MIT\npragma solidity ^0.8.13;\n\n\ncontract Todo {\n    struct Task {\n        uint256 id;\n        string name;\n        uint256 createdAt;\n        uint256 updatedAt;\n        uint256 completedAt;\n        uint256 deletedAt;\n    }\n\n\n    mapping(address => Task[]) public tasks;\n\n   event TaskCreated(address indexed user, uint256 indexed taskId, string name);\n   event TaskUpdated(address indexed user, uint256 indexed taskId, string name);\n   event TaskDeleted(address indexed user, uint256 indexed taskId);\n   event TaskCompleted(address indexed user, uint256 indexed taskId);\n\n\n\n    function createTask (string memory _name) public returns (uint256) {\n        uint256 id = tasks[msg.sender].length;\n\n         tasks[msg.sender].push(\n                Task({\n                    id: id,\n                    name: _name,\n                    createdAt: block.timestamp,\n                    updatedAt: block.timestamp,\n                    completedAt: 0,\n                    deletedAt: 0\n                })\n            ); \n        emit TaskCreated(msg.sender, id, _name);\n        return id;\n    }\n\n    function getTaskById(uint256 _id) public view returns (Task memory) {\n        Task[] storage userTasks = tasks[msg.sender];\n\n        for (uint256 i = 0; i < userTasks.length; i++) {\n            if (userTasks[i].id == _id && userTasks[i].deletedAt == 0) {\n                return userTasks[i];\n            }\n        }\n\n        revert(\"Task not found\");\n    }\n\n    function updateTask(string memory _name, uint256 taskId) public {\n        Task[] storage userTasks = tasks[msg.sender];\n\n        for (uint256 i = 0; i < userTasks.length; i++) {\n            if (userTasks[i].id == taskId && userTasks[i].deletedAt == 0) {\n                userTasks[i].name = _name;\n                userTasks[i].updatedAt = block.timestamp;\n                emit TaskUpdated(msg.sender, taskId, _name);\n                return;\n            }\n        }\n        revert(\"Task not found\");\n   }\n\n   function deleteTask (uint256 taskId) public {\n        Task[] storage userTasks = tasks[msg.sender];\n\n        for (uint256 i = 0; i < userTasks.length; i++) {\n            if (userTasks[i].id == taskId && userTasks[i].deletedAt == 0) {\n                userTasks[i].deletedAt = block.timestamp;\n                emit TaskDeleted(msg.sender, taskId);\n                return;\n            }\n        }\n        revert(\"Task not found\");\n   }\n\n   function getAllTasksForAUser() public view returns (Task[] memory) {\n     Task[] storage userTasks = tasks[msg.sender];\n\n\n     uint256 activeCount = 0;\n\n     for (uint256 i = 0; i < userTasks.length; i++) {\n        if (userTasks[i].deletedAt == 0) {\n            activeCount++;\n        }\n    }\n\n   \n    Task[] memory activeTasks = new Task[](activeCount);\n    uint256 j = 0;\n\n    for (uint256 i = 0; i < userTasks.length; i++) {\n        if (userTasks[i].deletedAt == 0) {\n            activeTasks[j] = userTasks[i];\n            j++;\n        }\n    }\n\n    return activeTasks;\n   }\n\n   function markTaskAsCompleted(uint256 taskId) public {\n     Task[] storage userTasks = tasks[msg.sender];\n\n     for(uint256 i = 0; i < userTasks.length; i++){\n        if(userTasks[i].id == taskId){\n            userTasks[i].completedAt = block.timestamp;\n            emit TaskCompleted(msg.sender, taskId);\n            return;\n        }\n     }\n     revert('Task not found');\n   }\n}",
  "sourcePath": "/Users/samuel/Documents/Projects/voting-dapp/contracts/Todo.sol",
  "compiler": {
    "name": "solc",
    "version": "0.8.13+commit.abaa5c0e.Emscripten.clang"
  },
  "schemaVersion": "3.4.16",
  "updatedAt": "2025-12-22T09:19:01.205Z",
  "networkType": "ethereum",
  "devdoc": {
    "kind": "dev",
    "methods": {},
    "version": 1
  },
  "userdoc": {
    "kind": "user",
    "methods": {},
    "version": 1
  }
}